:100000000C94FE000C9424010C9424010C94240103
:100010000C9424010C9424010C9424010C942401CC
:100020000C9424010C9424010C9424010C942401BC
:100030000C9424010C9424010C9424010C942401AC
:100040000C9424010C9424010C9424010C9424019C
:100050000C9424010C9424010C9424010C9424018C
:100060000C9424010C9424010C9424010C9424017C
:100070000C9424010C9424010C9424010C9424016C
:100080000C9424010C9424010C9424010C9424015C
:100090000C9424010C9424010C9424010C9424014C
:1000A0000C9424010C9424010C9424010C9424013C
:1000B0000C9424010C9424010C9424010C9424012C
:1000C0000C9424010C9424010C9424010C9424011C
:1000D0000C9424010C9424010C9424010C9424010C
:1000E0000C9424010C9424010C9424010C942401FC
:1000F0000C9424010C9424010C9424010C942401EC
:100100000C9424010C9424010C9424010C942401DB
:100110000C9424010C9424010C9424010C942401CB
:100120000C9424010C9424010C9424010C942401BB
:100130000C9424010C9424010C9424010C942401AB
:100140000C9424010C9424010C9424010C9424019B
:100150000C9424010C9424010C9424010C9424018B
:100160000C9424010C9424010C9424010C9424017B
:100170000C9424010C9424010C9424010C9424016B
:100180000C9424010C9424010C9424010C9424015B
:100190000C9424010C9424010C9424010C9424014B
:1001A0000C9424010C9424010C9424010C9424013B
:1001B0000C9424010C9424010C9424010C9424012B
:1001C0000C9424010C9424010C9424010C9424011B
:1001D0000C9424010C9424010C9424010C9424010B
:1001E0000C9424010C9424010C9424010C942401FB
:1001F0000C9424010C9424010C94240111241FBE9E
:10020000CFEFCDBFDFE3DEBF00E00CBF18BE19BEED
:100210001ABE1BBE12E2A0E0B0E2EEEEF3E000E098
:100220000BBF02C007900D92A030B107D9F71BBEDB
:1002300022E2A0E0B2E201C01D92A030B207E1F7D5
:100240000E94C6010C94F5010C9400000F9302E08B
:10025000009350000091510001FFFCCF08ED009386
:10026000340001E00093400088ED0093340000E08A
:10027000009341000F910895CF93DF93CDB7DEB780
:1002800080E096E028E0FC01218380E093E029E013
:10029000FC01208380E093E020E2FC01218380E0E8
:1002A00093E028E1FC0122830000DF91CF910895C3
:1002B000CF93DF9300D01F92CDB7DEB789839A83A7
:1002C0006B837C8380E091E020E031E0F9012081C4
:1002D0002064FC01208380E091E025E2FC01208B7A
:1002E00080E091E029E5FC01228B80E091E021E0B3
:1002F000FC01238B80E091E02B813C81FC01248B6D
:10030000358B80E091E0FC01168A80E091E0298144
:100310003A81FC01208F80E091E029813A81232FEE
:100320003327FC01218F20E031E089819A81CC01C3
:10033000A0E0B0E0CD01AA27BB27F901828F80E0C1
:1003400091E02AE1FC01248F80E091E023E0FC01B0
:10035000258F80E091E0FC01168E80E091E020E0A6
:1003600031E0F90120892068FC01208B80E091E0D8
:1003700020E031E0F90120812068FC0120830000A9
:100380002496CDBFDEBFDF91CF910895CF93DF9349
:10039000CDB7DEB70E9426010E943C0160E072E00A
:1003A00080E090E20E9458010E94D701FFCFCF93D6
:1003B000DF93CDB7DEB780E098E0FC0110A211A278
:1003C00080E098E028E430E0FC0126A337A380E831
:1003D00091E020ECFC01208380E098E021E0FC012A
:0E03E00020830000DF91CF910895F894FFCFA5
:1003EE000008320864089608C808FA082C095E0945
:1003FE008F09C009F109220A520A820AB10AE00ADB
:10040E000F0B3D0B6B0B980BC50BF10B1C0C470C1C
:10041E00710C9A0CC30CEB0C120D390D5F0D830D84
:10042E00A70DCA0DED0D0E0E2E0E4E0E6C0E8A0E73
:10043E00A60EC10EDC0EF50E0D0F240F3A0F4F0F48
:10044E00630F760F870F980FA70FB50FC20FCD0F43
:10045E00D80FE10FE90FF00FF50FF90FFD0FFE0F9B
:10046E00FF0FFE0FFD0FF90FF50FF00FE90FE10F64
:10047E00D80FCD0FC20FB50FA70F980F870F760F9E
:10048E00630F4F0F3A0F240F0D0FF50EDC0EC10E3A
:10049E00A60E8A0E6C0E4E0E2E0E0E0EED0DCA0D03
:1004AE00A70D830D5F0D390D120DEB0CC30C9A0CBD
:1004BE00710C470C1C0CF10BC50B980B6B0B3D0B09
:1004CE000F0BE00AB10A820A520A220AF109C00988
:1004DE008F095E092C09FA08C808960864083208C4
:1004EE000008CD079B07690737070507D306A10646
:1004FE0070063F060E06DD05AD057D054E051F0592
:10050E00F004C204940467043A040E04E303B8032F
:10051E008E0365033C031403ED02C602A0027C02A7
:10052E00580235021202F101D101B1019301750198
:10053E0059013E0123010A01F200DB00C500B000A3
:10054E009C0089007800670058004A003D00320088
:10055E0027001E0016000F000A0006000200010010
:10056E0000000100020006000A000F0016001E0027
:10057E00270032003D004A005800670078008900CD
:10058E009C00B000C500DB00F2000A0123013E0111
:10059E00590175019301B101D101F1011202350228
:1005AE0058027C02A002C602ED0214033C0365034E
:1005BE008E03B803E3030E043A0467049404C204E2
:1005CE00F0041F054E057D05AD05DD050E063F0643
:1005DE007006A106D3060507370769079B07CD07E7
:00000001FF
