:100000000C94FE000C9424010C9424010C94240103
:100010000C9424010C9424010C9424010C942401CC
:100020000C9424010C9424010C9424010C942401BC
:100030000C9424010C9424010C9424010C942401AC
:100040000C9424010C9424010C9424010C9424019C
:100050000C9424010C9424010C9424010C9424018C
:100060000C9424010C9424010C9424010C9424017C
:100070000C9424010C9424010C9424010C9424016C
:100080000C9424010C9424010C9424010C9424015C
:100090000C9424010C9424010C9424010C9424014C
:1000A0000C9424010C9424010C9424010C9424013C
:1000B0000C9424010C9424010C9424010C948201CE
:1000C0000C9424010C9424010C9424010C9424011C
:1000D0000C9424010C9424010C9424010C9424010C
:1000E0000C9424010C9424010C9424010C942401FC
:1000F0000C9424010C9424010C9424010C942401EC
:100100000C9424010C9424010C9424010C942401DB
:100110000C9424010C9424010C9424010C942401CB
:100120000C9424010C9424010C9424010C942401BB
:100130000C9424010C9424010C9424010C942401AB
:100140000C9424010C9424010C9424010C9424019B
:100150000C9424010C9424010C9424010C9424018B
:100160000C94BC010C9424010C9424010C942401E3
:100170000C9424010C9424010C9424010C9424016B
:100180000C9424010C9424010C9424010C9424015B
:100190000C9424010C9424010C9424010C9424014B
:1001A0000C9424010C9424010C9424010C9424013B
:1001B0000C9424010C9424010C9424010C9424012B
:1001C0000C9424010C9424010C9424010C9424011B
:1001D0000C9424010C9424010C9424010C9424010B
:1001E0000C9424010C9424010C9424010C942401FB
:1001F0000C9424010C9424010C94240111241FBE9E
:10020000CFEFCDBFDFE3DEBF00E00CBF18BE19BEED
:100210001ABE1BBE14E2A0E0B0E2EEE8F5E000E09A
:100220000BBF02C007900D92A030B107D9F71BBEDB
:1002300024E2A0E0B4E201C01D92A330B207E1F7CE
:100240000E946C010C94C5020C9400000F9302E014
:10025000009350000091510001FFFCCF08ED009386
:10026000340001E00093400088ED0093340000E08A
:10027000009341000F91089588E080930106E0E02B
:10028000F3E089E0808380E2818388E182830895BE
:10029000E0E0F1E020812064208325E2208B29E545
:1002A000228B21E0238B648B758B168A808F918F34
:1002B000128E8AE1848F83E0858F168E8089806814
:1002C000808B8081806880830895E0EAF0E08281FD
:1002D0008360828378940895E0E4F6E080E8858383
:1002E00081830E9426010E943C0160E072E080E070
:1002F00092E20E9448010E94B1020E9465010E94A0
:100300001602FFCF1F920F920FB60F92112408B65C
:100310000F9218BE09B60F9219BE0BB60F921BBEF4
:100320002F933F934F935F936F937F938F939F93FD
:10033000AF93BF93EF93FF9380910024813019F422
:100340001092002402C00E942602FF91EF91BF91FB
:10035000AF919F918F917F916F915F914F913F915D
:100360002F910F900BBE0F9009BE0F9008BE0F90FB
:100370000FBE0F901F9018951F920F920FB60F92FD
:10038000112408B60F9218BE09B60F9219BE0BB60B
:100390000F921BBE2F933F934F935F936F937F9367
:1003A0008F939F93AF93BF93EF93FF93E0EAF9E0AE
:1003B0008081809302248091022480838091022492
:1003C0000E94290281E080930024809102248337D7
:1003D000B1F48091012481110AC060E072E080E0F4
:1003E00090E20E94480181E08093012408C060E00F
:1003F00072E080E092E20E94480110920124FF9195
:10040000EF91BF91AF919F918F917F916F915F918C
:100410004F913F912F910F900BBE0F9009BE0F90FF
:1004200008BE0F900FBE0F901F90189580EC809320
:100430008001E0E0FAE010A211A280E593EC86A32F
:1004400097A381E0868385E0808308951092000859
:1004500008951092200810922108873749F4E0E0AF
:10046000F8E08AE790E086A397A381E0808308956F
:10047000833349F4E0E0F8E083E790E086A397A3B4
:1004800081E080830895853649F4E0E0F8E08CE669
:1004900090E086A397A381E080830895843349F494
:1004A000E0E0F8E086E690E086A397A381E0808311
:1004B0000895823749F4E0E0F8E080E690E086A312
:1004C00097A381E080830895843749F4E0E0F8E061
:1004D0008BE590E086A397A381E08083089586331F
:1004E00049F4E0E0F8E086E590E086A397A381E098
:1004F00080830895893749F4E0E0F8E081E590E0F1
:1005000086A397A381E080830895873349F4E0E0D0
:10051000F8E08CE490E086A397A381E080830895BF
:10052000853749F4E0E0F8E088E490E086A397A3FB
:1005300081E080830895883349F4E0E0F8E084E4C2
:1005400090E086A397A381E080830895893641F4E3
:10055000E0E0F8E080E490E086A397A381E0808368
:100560000895E0E6F6E088E08583818384E0828375
:10057000E0EAF9E080E2838388E1848383E2858393
:0E05800085E7868380ED87830895F894FFCF8A
:10058E002000400060008000A000C000E0000001DC
:10059E002001400160018001A001C001E0010002C4
:1005AE002002400260028002A002C002E0020003AC
:1005BE002003400360038003A003C003E003000494
:1005CE002004400460048004A004C004E00400057C
:1005DE002005400560058005A005C005E005000664
:1005EE002006400660068006A006C006E00600074C
:1005FE002007400760078007A007C007E007000834
:10060E001F083F085F087F089F08BF08DF08FF0824
:10061E001F093F095F097F099F09BF09DF09FF090C
:10062E001F0A3F0A5F0A7F0A9F0ABF0ADF0AFF0AF4
:10063E001F0B3F0B5F0B7F0B9F0BBF0BDF0BFF0BDC
:10064E001F0C3F0C5F0C7F0C9F0CBF0CDF0CFF0CC4
:10065E001F0D3F0D5F0D7F0D9F0DBF0DDF0DFF0DAC
:10066E001F0E3F0E5F0E7F0E9F0EBF0EDF0EFF0E94
:10067E001F0F3F0F5F0F7F0F9F0FBF0FDF0FFF0F7C
:10068E00DF0FBF0F9F0F7F0F5F0F3F0F1F0FFF0E6D
:10069E00DF0EBF0E9F0E7F0E5F0E3F0E1F0EFF0D65
:1006AE00DF0DBF0D9F0D7F0D5F0D3F0D1F0DFF0C5D
:1006BE00DF0CBF0C9F0C7F0C5F0C3F0C1F0CFF0B55
:1006CE00DF0BBF0B9F0B7F0B5F0B3F0B1F0BFF0A4D
:1006DE00DF0ABF0A9F0A7F0A5F0A3F0A1F0AFF0945
:1006EE00DF09BF099F097F095F093F091F09FF083D
:1006FE00DF08BF089F087F085F083F081F08000833
:10070E00E007C007A0078007600740072007000723
:10071E00E006C006A006800660064006200600061B
:10072E00E005C005A0058005600540052005000513
:10073E00E004C004A004800460044004200400040B
:10074E00E003C003A0038003600340032003000303
:10075E00E002C002A00280026002400220020002FB
:10076E00E001C001A00180016001400120010001F3
:10077E00E000C000A00080006000400020000000EB
:10078E000008320864089608C808FA082C095E09A1
:10079E008F09C009F109220A520A820AB10AE00A37
:1007AE000F0B3D0B6B0B980BC50BF10B1C0C470C79
:1007BE00710C9A0CC30CEB0C120D390D5F0D830DE1
:1007CE00A70DCA0DED0D0E0E2E0E4E0E6C0E8A0ED0
:1007DE00A60EC10EDC0EF50E0D0F240F3A0F4F0FA5
:1007EE00630F760F870F980FA70FB50FC20FCD0FA0
:1007FE00D80FE10FE90FF00FF50FF90FFD0FFE0FF8
:10080E00FF0FFE0FFD0FF90FF50FF00FE90FE10FC0
:10081E00D80FCD0FC20FB50FA70F980F870F760FFA
:10082E00630F4F0F3A0F240F0D0FF50EDC0EC10E96
:10083E00A60E8A0E6C0E4E0E2E0E0E0EED0DCA0D5F
:10084E00A70D830D5F0D390D120DEB0CC30C9A0C19
:10085E00710C470C1C0CF10BC50B980B6B0B3D0B65
:10086E000F0BE00AB10A820A520A220AF109C009E4
:10087E008F095E092C09FA08C80896086408320820
:10088E000008CD079B07690737070507D306A106A2
:10089E0070063F060E06DD05AD057D054E051F05EE
:1008AE00F004C204940467043A040E04E303B8038C
:1008BE008E0365033C031403ED02C602A0027C0204
:1008CE00580235021202F101D101B10193017501F5
:1008DE0059013E0123010A01F200DB00C500B00000
:1008EE009C0089007800670058004A003D003200E5
:1008FE0027001E0016000F000A000600020001006D
:10090E0000000100020006000A000F0016001E0083
:10091E00270032003D004A00580067007800890029
:10092E009C00B000C500DB00F2000A0123013E016D
:10093E00590175019301B101D101F1011202350284
:10094E0058027C02A002C602ED0214033C036503AA
:10095E008E03B803E3030E043A0467049404C2043E
:10096E00F0041F054E057D05AD05DD050E063F069F
:10097E007006A106D3060507370769079B07CD0743
:00000001FF
