:100000000C94FE000C9424010C9424010C94240103
:100010000C9424010C9424010C9424010C942401CC
:100020000C9424010C9424010C9424010C942401BC
:100030000C9424010C9424010C9424010C942401AC
:100040000C9424010C9424010C9424010C9424019C
:100050000C9424010C9424010C9424010C9424018C
:100060000C9424010C9424010C9424010C9424017C
:100070000C9424010C9424010C9424010C9424016C
:100080000C9424010C9424010C9424010C9424015C
:100090000C9424010C9424010C9424010C9424014C
:1000A0000C9424010C9424010C9424010C9424013C
:1000B0000C9424010C9424010C9424010C9424012C
:1000C0000C9424010C9424010C9424010C9424011C
:1000D0000C9424010C9424010C9424010C9424010C
:1000E0000C9424010C9424010C9424010C942401FC
:1000F0000C9424010C9424010C9424010C942401EC
:100100000C9424010C9424010C9424010C942401DB
:100110000C9424010C9424010C9424010C942401CB
:100120000C9424010C9424010C9424010C942401BB
:100130000C9424010C9424010C9424010C942401AB
:100140000C9424010C9424010C9424010C9424019B
:100150000C9424010C9424010C9424010C9424018B
:100160000C9424010C9424010C9424010C9424017B
:100170000C9424010C9424010C9424010C9424016B
:100180000C9424010C9424010C9424010C9424015B
:100190000C9424010C9424010C9424010C9424014B
:1001A0000C9424010C9424010C9424010C9424013B
:1001B0000C9424010C9424010C9424010C9424012B
:1001C0000C9424010C9424010C9424010C9424011B
:1001D0000C9424010C9424010C9424010C9424010B
:1001E0000C9424010C9424010C9424010C942401FB
:1001F0000C9424010C9424010C94240111241FBE9E
:10020000CFEFCDBFDFE3DEBF00E00CBF18BE19BEED
:100210001ABE1BBE12E2A0E0B0E2EEE0F3E000E0A6
:100220000BBF02C007900D92A030B107D9F71BBEDB
:1002300022E2A0E0B2E201C01D92A030B207E1F7D5
:100240000E9465010C9485010C9400000F9302E05C
:10025000009350000091510001FFFCCF08ED009386
:10026000340001E00093400088ED0093340000E08A
:10027000009341000F91089588E080930106E0E02B
:10028000F3E089E0808380E2818388E182830895BE
:10029000E0E0F1E020812064208325E2208B29E545
:1002A000228B21E0238B648B758B168A808F918F34
:1002B000128E8AE1848F83E0858F168E8089806814
:1002C000808B8081806880830895E0E4F6E080E898
:1002D000858381830E9426010E943C0160E072E0D8
:1002E00080E090E20E9448010E947701FFCFE0E0A9
:1002F000F8E010A211A288E490E086A397A380EC16
:0E0300008093800181E080830895F894FFCF00
:10030E000008320864089608C808FA082C095E0925
:10031E008F09C009F109220A520A820AB10AE00ABB
:10032E000F0B3D0B6B0B980BC50BF10B1C0C470CFD
:10033E00710C9A0CC30CEB0C120D390D5F0D830D65
:10034E00A70DCA0DED0D0E0E2E0E4E0E6C0E8A0E54
:10035E00A60EC10EDC0EF50E0D0F240F3A0F4F0F29
:10036E00630F760F870F980FA70FB50FC20FCD0F24
:10037E00D80FE10FE90FF00FF50FF90FFD0FFE0F7C
:10038E00FF0FFE0FFD0FF90FF50FF00FE90FE10F45
:10039E00D80FCD0FC20FB50FA70F980F870F760F7F
:1003AE00630F4F0F3A0F240F0D0FF50EDC0EC10E1B
:1003BE00A60E8A0E6C0E4E0E2E0E0E0EED0DCA0DE4
:1003CE00A70D830D5F0D390D120DEB0CC30C9A0C9E
:1003DE00710C470C1C0CF10BC50B980B6B0B3D0BEA
:1003EE000F0BE00AB10A820A520A220AF109C00969
:1003FE008F095E092C09FA08C808960864083208A5
:10040E000008CD079B07690737070507D306A10626
:10041E0070063F060E06DD05AD057D054E051F0572
:10042E00F004C204940467043A040E04E303B80310
:10043E008E0365033C031403ED02C602A0027C0288
:10044E00580235021202F101D101B1019301750179
:10045E0059013E0123010A01F200DB00C500B00084
:10046E009C0089007800670058004A003D00320069
:10047E0027001E0016000F000A00060002000100F1
:10048E0000000100020006000A000F0016001E0008
:10049E00270032003D004A005800670078008900AE
:1004AE009C00B000C500DB00F2000A0123013E01F2
:1004BE00590175019301B101D101F1011202350209
:1004CE0058027C02A002C602ED0214033C0365032F
:1004DE008E03B803E3030E043A0467049404C204C3
:1004EE00F0041F054E057D05AD05DD050E063F0624
:1004FE007006A106D3060507370769079B07CD07C8
:00000001FF
